{
  "abi": [
    {
      "inputs": [
        {
          "internalType": "string",
          "name": "_name",
          "type": "string"
        },
        {
          "internalType": "string",
          "name": "_symbol",
          "type": "string"
        },
        {
          "internalType": "address",
          "name": "_challenges",
          "type": "address"
        },
        {
          "internalType": "address",
          "name": "_programs",
          "type": "address"
        }
      ],
      "stateMutability": "nonpayable",
      "type": "constructor"
    },
    {
      "anonymous": false,
      "inputs": [
        {
          "indexed": true,
          "internalType": "address",
          "name": "owner",
          "type": "address"
        },
        {
          "indexed": true,
          "internalType": "address",
          "name": "spender",
          "type": "address"
        },
        {
          "indexed": true,
          "internalType": "uint256",
          "name": "id",
          "type": "uint256"
        }
      ],
      "name": "Approval",
      "type": "event"
    },
    {
      "anonymous": false,
      "inputs": [
        {
          "indexed": true,
          "internalType": "address",
          "name": "owner",
          "type": "address"
        },
        {
          "indexed": true,
          "internalType": "address",
          "name": "operator",
          "type": "address"
        },
        {
          "indexed": false,
          "internalType": "bool",
          "name": "approved",
          "type": "bool"
        }
      ],
      "name": "ApprovalForAll",
      "type": "event"
    },
    {
      "anonymous": false,
      "inputs": [
        {
          "indexed": false,
          "internalType": "uint256",
          "name": "id",
          "type": "uint256"
        },
        {
          "indexed": false,
          "internalType": "address",
          "name": "challenge",
          "type": "address"
        },
        {
          "indexed": false,
          "internalType": "address",
          "name": "program",
          "type": "address"
        },
        {
          "indexed": false,
          "internalType": "uint256",
          "name": "size",
          "type": "uint256"
        },
        {
          "indexed": false,
          "internalType": "uint256",
          "name": "gas",
          "type": "uint256"
        }
      ],
      "name": "Created",
      "type": "event"
    },
    {
      "anonymous": false,
      "inputs": [
        {
          "indexed": true,
          "internalType": "address",
          "name": "challenge",
          "type": "address"
        },
        {
          "indexed": false,
          "internalType": "uint256",
          "name": "value",
          "type": "uint256"
        }
      ],
      "name": "Funded",
      "type": "event"
    },
    {
      "anonymous": false,
      "inputs": [
        {
          "indexed": true,
          "internalType": "address",
          "name": "winner",
          "type": "address"
        },
        {
          "indexed": true,
          "internalType": "address",
          "name": "challenge",
          "type": "address"
        },
        {
          "indexed": false,
          "internalType": "uint256",
          "name": "value",
          "type": "uint256"
        }
      ],
      "name": "Payed",
      "type": "event"
    },
    {
      "anonymous": false,
      "inputs": [
        {
          "indexed": true,
          "internalType": "address",
          "name": "from",
          "type": "address"
        },
        {
          "indexed": true,
          "internalType": "address",
          "name": "to",
          "type": "address"
        },
        {
          "indexed": true,
          "internalType": "uint256",
          "name": "id",
          "type": "uint256"
        }
      ],
      "name": "Transfer",
      "type": "event"
    },
    {
      "inputs": [
        {
          "internalType": "address",
          "name": "spender",
          "type": "address"
        },
        {
          "internalType": "uint256",
          "name": "id",
          "type": "uint256"
        }
      ],
      "name": "approve",
      "outputs": [],
      "stateMutability": "nonpayable",
      "type": "function"
    },
    {
      "inputs": [
        {
          "internalType": "address",
          "name": "owner",
          "type": "address"
        }
      ],
      "name": "balanceOf",
      "outputs": [
        {
          "internalType": "uint256",
          "name": "",
          "type": "uint256"
        }
      ],
      "stateMutability": "view",
      "type": "function"
    },
    {
      "inputs": [
        {
          "internalType": "address",
          "name": "challenge",
          "type": "address"
        }
      ],
      "name": "fund",
      "outputs": [],
      "stateMutability": "payable",
      "type": "function"
    },
    {
      "inputs": [
        {
          "internalType": "address",
          "name": "",
          "type": "address"
        }
      ],
      "name": "funds",
      "outputs": [
        {
          "internalType": "uint256",
          "name": "",
          "type": "uint256"
        }
      ],
      "stateMutability": "view",
      "type": "function"
    },
    {
      "inputs": [
        {
          "internalType": "uint256",
          "name": "",
          "type": "uint256"
        }
      ],
      "name": "getApproved",
      "outputs": [
        {
          "internalType": "address",
          "name": "",
          "type": "address"
        }
      ],
      "stateMutability": "view",
      "type": "function"
    },
    {
      "inputs": [
        {
          "internalType": "address",
          "name": "",
          "type": "address"
        },
        {
          "internalType": "address",
          "name": "",
          "type": "address"
        }
      ],
      "name": "isApprovedForAll",
      "outputs": [
        {
          "internalType": "bool",
          "name": "",
          "type": "bool"
        }
      ],
      "stateMutability": "view",
      "type": "function"
    },
    {
      "inputs": [
        {
          "components": [
            {
              "internalType": "uint256",
              "name": "gasUsed",
              "type": "uint256"
            },
            {
              "internalType": "address",
              "name": "challenge",
              "type": "address"
            },
            {
              "internalType": "address",
              "name": "program",
              "type": "address"
            }
          ],
          "internalType": "struct Trophy",
          "name": "trophy",
          "type": "tuple"
        }
      ],
      "name": "isRecord",
      "outputs": [
        {
          "internalType": "bool",
          "name": "",
          "type": "bool"
        },
        {
          "internalType": "bool",
          "name": "",
          "type": "bool"
        }
      ],
      "stateMutability": "view",
      "type": "function"
    },
    {
      "inputs": [
        {
          "internalType": "uint256",
          "name": "id",
          "type": "uint256"
        }
      ],
      "name": "isRecord",
      "outputs": [
        {
          "internalType": "bool",
          "name": "",
          "type": "bool"
        },
        {
          "internalType": "bool",
          "name": "",
          "type": "bool"
        }
      ],
      "stateMutability": "view",
      "type": "function"
    },
    {
      "inputs": [],
      "name": "name",
      "outputs": [
        {
          "internalType": "string",
          "name": "",
          "type": "string"
        }
      ],
      "stateMutability": "view",
      "type": "function"
    },
    {
      "inputs": [
        {
          "internalType": "uint256",
          "name": "id",
          "type": "uint256"
        }
      ],
      "name": "ownerOf",
      "outputs": [
        {
          "internalType": "address",
          "name": "owner",
          "type": "address"
        }
      ],
      "stateMutability": "view",
      "type": "function"
    },
    {
      "inputs": [
        {
          "internalType": "address",
          "name": "",
          "type": "address"
        }
      ],
      "name": "records",
      "outputs": [
        {
          "internalType": "uint256",
          "name": "size",
          "type": "uint256"
        },
        {
          "internalType": "uint256",
          "name": "gas",
          "type": "uint256"
        }
      ],
      "stateMutability": "view",
      "type": "function"
    },
    {
      "inputs": [
        {
          "internalType": "address",
          "name": "from",
          "type": "address"
        },
        {
          "internalType": "address",
          "name": "to",
          "type": "address"
        },
        {
          "internalType": "uint256",
          "name": "id",
          "type": "uint256"
        }
      ],
      "name": "safeTransferFrom",
      "outputs": [],
      "stateMutability": "nonpayable",
      "type": "function"
    },
    {
      "inputs": [
        {
          "internalType": "address",
          "name": "from",
          "type": "address"
        },
        {
          "internalType": "address",
          "name": "to",
          "type": "address"
        },
        {
          "internalType": "uint256",
          "name": "id",
          "type": "uint256"
        },
        {
          "internalType": "bytes",
          "name": "data",
          "type": "bytes"
        }
      ],
      "name": "safeTransferFrom",
      "outputs": [],
      "stateMutability": "nonpayable",
      "type": "function"
    },
    {
      "inputs": [
        {
          "internalType": "address",
          "name": "operator",
          "type": "address"
        },
        {
          "internalType": "bool",
          "name": "approved",
          "type": "bool"
        }
      ],
      "name": "setApprovalForAll",
      "outputs": [],
      "stateMutability": "nonpayable",
      "type": "function"
    },
    {
      "inputs": [
        {
          "internalType": "address",
          "name": "challenge",
          "type": "address"
        },
        {
          "internalType": "address",
          "name": "program",
          "type": "address"
        }
      ],
      "name": "submit",
      "outputs": [
        {
          "internalType": "uint256",
          "name": "id",
          "type": "uint256"
        }
      ],
      "stateMutability": "nonpayable",
      "type": "function"
    },
    {
      "inputs": [
        {
          "internalType": "bytes4",
          "name": "interfaceId",
          "type": "bytes4"
        }
      ],
      "name": "supportsInterface",
      "outputs": [
        {
          "internalType": "bool",
          "name": "",
          "type": "bool"
        }
      ],
      "stateMutability": "view",
      "type": "function"
    },
    {
      "inputs": [],
      "name": "symbol",
      "outputs": [
        {
          "internalType": "string",
          "name": "",
          "type": "string"
        }
      ],
      "stateMutability": "view",
      "type": "function"
    },
    {
      "inputs": [
        {
          "internalType": "uint256",
          "name": "id",
          "type": "uint256"
        }
      ],
      "name": "tokenURI",
      "outputs": [
        {
          "internalType": "string",
          "name": "",
          "type": "string"
        }
      ],
      "stateMutability": "view",
      "type": "function"
    },
    {
      "inputs": [],
      "name": "totalSupply",
      "outputs": [
        {
          "internalType": "uint256",
          "name": "",
          "type": "uint256"
        }
      ],
      "stateMutability": "view",
      "type": "function"
    },
    {
      "inputs": [
        {
          "internalType": "address",
          "name": "from",
          "type": "address"
        },
        {
          "internalType": "address",
          "name": "to",
          "type": "address"
        },
        {
          "internalType": "uint256",
          "name": "id",
          "type": "uint256"
        }
      ],
      "name": "transferFrom",
      "outputs": [],
      "stateMutability": "nonpayable",
      "type": "function"
    }
  ],
  "bytecode": {
    "object": "0x60806040523480156200001157600080fd5b50604051620030cc380380620030cc83398101604081905262000034916200022f565b8351849084906200004d9060009060208501906200009f565b508051620000639060019060208401906200009f565b5050600a80546001600160a01b039485166001600160a01b031991821617909155600b80549390941692169190911790915550620002fa915050565b828054620000ad90620002be565b90600052602060002090601f016020900481019282620000d157600085556200011c565b82601f10620000ec57805160ff19168380011785556200011c565b828001600101855582156200011c579182015b828111156200011c578251825591602001919060010190620000ff565b506200012a9291506200012e565b5090565b5b808211156200012a57600081556001016200012f565b634e487b7160e01b600052604160045260246000fd5b600082601f8301126200016d57600080fd5b81516001600160401b03808211156200018a576200018a62000145565b604051601f8301601f19908116603f01168101908282118183101715620001b557620001b562000145565b81604052838152602092508683858801011115620001d257600080fd5b600091505b83821015620001f65785820183015181830184015290820190620001d7565b83821115620002085760008385830101525b9695505050505050565b80516001600160a01b03811681146200022a57600080fd5b919050565b600080600080608085870312156200024657600080fd5b84516001600160401b03808211156200025e57600080fd5b6200026c888389016200015b565b955060208701519150808211156200028357600080fd5b5062000292878288016200015b565b935050620002a36040860162000212565b9150620002b36060860162000212565b905092959194509250565b600181811c90821680620002d357607f821691505b602082108103620002f457634e487b7160e01b600052602260045260246000fd5b50919050565b612dc2806200030a6000396000f3fe60806040526004361061011f5760003560e01c8063469e9067116100a0578063b1cb3d0e11610064578063b1cb3d0e14610377578063b88d4fde14610397578063c87b56dd146103b7578063e2ae93fb146103d7578063e985e9c51461040457600080fd5b8063469e9067146102b95780636352211e1461030257806370a082311461032257806395d89b4114610342578063a22cb4651461035757600080fd5b806318160ddd116100e757806318160ddd14610222578063230244081461024657806323b872dd14610259578063274eafa51461027957806342842e0e1461029957600080fd5b806301ffc9a714610124578063056a0bed1461015957806306fdde0314610190578063081812fc146101b2578063095ea7b314610200575b600080fd5b34801561013057600080fd5b5061014461013f3660046122f6565b61043f565b60405190151581526020015b60405180910390f35b34801561016557600080fd5b50610179610174366004612345565b610491565b604080519215158352901515602083015201610150565b34801561019c57600080fd5b506101a56104d1565b60405161015091906123ec565b3480156101be57600080fd5b506101e86101cd36600461241f565b6004602052600090815260409020546001600160a01b031681565b6040516001600160a01b039091168152602001610150565b34801561020c57600080fd5b5061022061021b366004612438565b61055f565b005b34801561022e57600080fd5b5061023860065481565b604051908152602001610150565b610220610254366004612464565b610646565b34801561026557600080fd5b50610220610274366004612481565b6107a2565b34801561028557600080fd5b5061017961029436600461241f565b610969565b3480156102a557600080fd5b506102206102b4366004612481565b6109be565b3480156102c557600080fd5b506102ed6102d4366004612464565b6009602052600090815260409020805460019091015482565b60408051928352602083019190915201610150565b34801561030e57600080fd5b506101e861031d36600461241f565b610a93565b34801561032e57600080fd5b5061023861033d366004612464565b610aea565b34801561034e57600080fd5b506101a5610b4d565b34801561036357600080fd5b506102206103723660046124d0565b610b5a565b34801561038357600080fd5b50610238610392366004612509565b610bc6565b3480156103a357600080fd5b506102206103b2366004612537565b611005565b3480156103c357600080fd5b506101a56103d236600461241f565b6110ca565b3480156103e357600080fd5b506102386103f2366004612464565b60086020526000908152604090205481565b34801561041057600080fd5b5061014461041f366004612509565b600560209081526000928352604080842090915290825290205460ff1681565b60006301ffc9a760e01b6001600160e01b03198316148061047057506380ac58cd60e01b6001600160e01b03198316145b8061048b5750635b5e139f60e01b6001600160e01b03198316145b92915050565b602080820180516001600160a01b039081166000908152600990935260408084205481860151935183168552932060010154935191163b90911492911490565b600080546104de906125d6565b80601f016020809104026020016040519081016040528092919081815260200182805461050a906125d6565b80156105575780601f1061052c57610100808354040283529160200191610557565b820191906000526020600020905b81548152906001019060200180831161053a57829003601f168201915b505050505081565b6000818152600260205260409020546001600160a01b0316338114806105a857506001600160a01b038116600090815260056020908152604080832033845290915290205460ff165b6105ea5760405162461bcd60e51b815260206004820152600e60248201526d1393d517d055551213d49256915160921b60448201526064015b60405180910390fd5b60008281526004602052604080822080546001600160a01b0319166001600160a01b0387811691821790925591518593918516917f8c5be1e5ebec7d5bd14f71427d1e84f3dd0314c0f7b2291e5b200ac8c7c3b92591a4505050565b600a5460405163f19b827360e01b81526001600160a01b0383811660048301529091169063f19b827390602401602060405180830381865afa158015610690573d6000803e3d6000fd5b505050506040513d601f19601f820116820180604052508101906106b49190612610565b6106f95760405162461bcd60e51b815260206004820152601660248201527510d2105313115391d157d393d517d050d0d15415115160521b60448201526064016105e1565b600034116107345760405162461bcd60e51b81526020600482015260086024820152674e4f5f56414c554560c01b60448201526064016105e1565b6001600160a01b0381166000908152600860205260408120805434929061075c908490612643565b90915550506040513481526001600160a01b038216907f5af8184bef8e4b45eb9f6ed7734d04da38ced226495548f46e0c8ff8d7d9a5249060200160405180910390a250565b6000818152600260205260409020546001600160a01b038481169116146107f85760405162461bcd60e51b815260206004820152600a60248201526957524f4e475f46524f4d60b01b60448201526064016105e1565b6001600160a01b0382166108425760405162461bcd60e51b81526020600482015260116024820152701253959053125117d49150d25412515395607a1b60448201526064016105e1565b336001600160a01b038416148061087c57506001600160a01b038316600090815260056020908152604080832033845290915290205460ff165b8061089d57506000818152600460205260409020546001600160a01b031633145b6108da5760405162461bcd60e51b815260206004820152600e60248201526d1393d517d055551213d49256915160921b60448201526064016105e1565b6001600160a01b0380841660008181526003602090815260408083208054600019019055938616808352848320805460010190558583526002825284832080546001600160a01b03199081168317909155600490925284832080549092169091559251849392917fddf252ad1be2c89b69c2b068fc378daa952ba7f163c4a11628f55a4df523b3ef91a4505050565b600081815260076020908152604080832081516060810183528154815260018201546001600160a01b03908116948201949094526002909101549092169082015281906109b590610491565b91509150915091565b6109c98383836107a2565b6001600160a01b0382163b1580610a725750604051630a85bd0160e11b8082523360048301526001600160a01b03858116602484015260448301849052608060648401526000608484015290919084169063150b7a029060a4016020604051808303816000875af1158015610a42573d6000803e3d6000fd5b505050506040513d601f19601f82011682018060405250810190610a66919061265b565b6001600160e01b031916145b610a8e5760405162461bcd60e51b81526004016105e190612678565b505050565b6000818152600260205260409020546001600160a01b031680610ae55760405162461bcd60e51b815260206004820152600a6024820152691393d517d3525395115160b21b60448201526064016105e1565b919050565b60006001600160a01b038216610b315760405162461bcd60e51b815260206004820152600c60248201526b5a45524f5f4144445245535360a01b60448201526064016105e1565b506001600160a01b031660009081526003602052604090205490565b600180546104de906125d6565b3360008181526005602090815260408083206001600160a01b03871680855290835292819020805460ff191686151590811790915590519081529192917f17307eab39ab6107e8899845ad3d59bd9653f200f220920489ca2b5937696c31910160405180910390a35050565b600a5460405163f19b827360e01b81526001600160a01b038481166004830152600092169063f19b827390602401602060405180830381865afa158015610c11573d6000803e3d6000fd5b505050506040513d601f19601f82011682018060405250810190610c359190612610565b610c7a5760405162461bcd60e51b815260206004820152601660248201527510d2105313115391d157d393d517d050d0d15415115160521b60448201526064016105e1565b600b546040516331a9108f60e11b81526001600160a01b03848116600483015233921690636352211e90602401602060405180830381865afa158015610cc4573d6000803e3d6000fd5b505050506040513d601f19601f82011682018060405250810190610ce891906126a2565b6001600160a01b031614610d325760405162461bcd60e51b8152602060048201526011602482015270141493d1d4905357d393d517d3d5d39151607a1b60448201526064016105e1565b60005a6040516372fb970360e01b81526001600160a01b0385811660048301529192506000918616906372fb9703906024016020604051808303816000875af1158015610d83573d6000803e3d6000fd5b505050506040513d601f19601f82011682018060405250810190610da79190612610565b90505a610db490836126bf565b915080610df65760405162461bcd60e51b815260206004820152601060248201526f10d2105313115391d157d1905253115160821b60448201526064016105e1565b610dff3361174b565b604080516060810182528481526001600160a01b0380891660208084018281528a8416858701818152600089815260078552888120975188559251600180890180549289166001600160a01b0319938416179055915160029098018054989097169716969096179094559182526009815284822085518087019096528054808752940154908501529396509192913b90811080610e9b57508251155b15610ea857808352600191505b8260200151851080610ebc57506020830151155b15610ecd5760208301859052600191505b8115610efd576001600160a01b038816600090815260096020908152604090912084518155908401516001909101555b604080518781526001600160a01b038a81166020830152891681830152606081018390526080810187905290517fab283ffa4e9dcb6b3ea7dbb8bee5dd78403e51f591f18a07937cf271f8f23e9d9181900360a00190a15050506001600160a01b0385166000908152600860205260409020548015610ffc57604051339082156108fc029083906000818181858888f19350505050158015610fa3573d6000803e3d6000fd5b506001600160a01b038616600081815260086020526040808220919091555133907f51a1a06191430448721e292133222a18764e814e7470bbadccf67416cfd081f590610ff39085815260200190565b60405180910390a35b50505092915050565b6110108585856107a2565b6001600160a01b0384163b15806110a75750604051630a85bd0160e11b808252906001600160a01b0386169063150b7a02906110589033908a908990899089906004016126d6565b6020604051808303816000875af1158015611077573d6000803e3d6000fd5b505050506040513d601f19601f8201168201806040525081019061109b919061265b565b6001600160e01b031916145b6110c35760405162461bcd60e51b81526004016105e190612678565b5050505050565b60408051600680825260e0820190925260609160009190816020015b60608152602001906001900390816110e657505060408051600680825260e0820190925291925060009190602082015b606081526020019060019003908161111657505060008581526007602090815260408083208151606080820184528254825260018301546001600160a01b0390811695830186905260029093015490921692810192909252939450919061117c9061181a565b9050604051806040016040528060098152602001684368616c6c656e676560b81b815250856000815181106111b3576111b361272a565b6020026020010181905250806040516020016111cf919061275c565b604051602081830303815290604052846000815181106111f1576111f161272a565b602002602001018190525061122881604051602001611210919061278a565b60405160208183030381529060405260146028611830565b925050600061124382604001516001600160a01b031661181a565b90506040518060400160405280600781526020016650726f6772616d60c81b815250856001815181106112785761127861272a565b602002602001018190525080604051602001611294919061275c565b604051602081830303815290604052846001815181106112b6576112b661272a565b6020026020010181905250826112ee826040516020016112d691906127bd565b6040516020818303038152906040526014603c611830565b6040516020016112ff9291906127e3565b60408051601f198184030181529181528301519093506001600160a01b03163b9050600061132c82611977565b905060006009600085602001516001600160a01b03166001600160a01b0316815260200190815260200160002060000154831490506040518060400160405280600481526020016353697a6560e01b815250876004815181106113915761139161272a565b602002602001018190525081866004815181106113b0576113b061272a565b60200260200101819052506040518060400160405280600b81526020016a14da5e9948149958dbdc9960aa1b815250876005815181106113f2576113f261272a565b602002602001018190525080611425576040518060400160405280600581526020016466616c736560d81b815250611443565b604051806040016040528060048152602001637472756560e01b8152505b866005815181106114565761145661272a565b6020026020010181905250846114c78383611480576040518060200160405280600081525061149e565b60405180604001604052806004815260200163020e2ad960e41b8152505b6040516020016114af929190612812565b60405160208183030381529060405260146050611830565b6040516020016114d89291906127e3565b604051602081830303815290604052945050505060006114fb8260000151611977565b905060006009600084602001516001600160a01b03166001600160a01b031681526020019081526020016000206001015483600001511490506040518060400160405280600381526020016247617360e81b815250866002815181106115635761156361272a565b602002602001018190525081856002815181106115825761158261272a565b60200260200101819052506040518060400160405280600a81526020016911d85cc8149958dbdc9960b21b815250866003815181106115c3576115c361272a565b6020026020010181905250806115f6576040518060400160405280600581526020016466616c736560d81b815250611614565b604051806040016040528060048152602001637472756560e01b8152505b856003815181106116275761162761272a565b6020026020010181905250836116988383611651576040518060200160405280600081525061166f565b60405180604001604052806004815260200163020e2ad960e41b8152505b604051602001611680929190612856565b60405160208183030381529060405260146064611830565b6040516020016116a99291906127e3565b60405160208183030381529060405293505050506000806116c987611977565b6040516020016116da929190612899565b604051602081830303815290604052905061174161173c828361173561173061170587601480611830565b886040516020016117179291906127e3565b6040516020818303038152906040526101e0608c611a7d565b611c22565b8888611c5c565b611d8d565b9695505050505050565b600061175682611dca565b90506001600160a01b0382163b15806117fe5750604051630a85bd0160e11b80825233600483015260006024830181905260448301849052608060648401526084830152906001600160a01b0384169063150b7a029060a4016020604051808303816000875af11580156117ce573d6000803e3d6000fd5b505050506040513d601f19601f820116820180604052508101906117f2919061265b565b6001600160e01b031916145b610ae55760405162461bcd60e51b81526004016105e190612678565b606061048b6001600160a01b0383166014611deb565b604080516002808252606082810190935260009190816020015b606081526020019060019003908161184a5750506040805160028082526060820190925291925060009190602082015b606081526020019060019003908161187a579050509050604051806040016040528060018152602001600f60fb1b815250826000815181106118be576118be61272a565b60200260200101819052506118d285611977565b816000815181106118e5576118e561272a565b6020026020010181905250604051806040016040528060018152602001607960f81b8152508260018151811061191d5761191d61272a565b602002602001018190525061193184611977565b816001815181106119445761194461272a565b6020026020010181905250611741604051806040016040528060048152602001631d195e1d60e21b815250878484611f85565b60608160000361199e5750506040805180820190915260018152600360fc1b602082015290565b8160005b81156119c857806119b281612950565b91506119c19050600a8361297f565b91506119a2565b8067ffffffffffffffff8111156119e1576119e161231a565b6040519080825280601f01601f191660200182016040528015611a0b576020820181803683370190505b5092505b8315611a7657611a206001826126bf565b9050611a2d600a85612993565b611a38906030612643565b60f81b838281518110611a4d57611a4d61272a565b60200101906001600160f81b031916908160001a905350611a6f600a8561297f565b9350611a0f565b5050919050565b604080516002808252606082810190935260009190816020015b6060815260200190600190039081611a9757905050905060405180604001604052806005815260200164786d6c6e7360d81b81525081600081518110611adf57611adf61272a565b6020026020010181905250604051806040016040528060078152602001660ecd2caee84def60cb1b81525081600181518110611b1d57611b1d61272a565b602090810291909101015260408051600280825260608201909252600091816020015b6060815260200190600190039081611b405790505090506040518060400160405280601a81526020017f687474703a2f2f7777772e77332e6f72672f323030302f73766700000000000081525081600081518110611ba057611ba061272a565b6020026020010181905250611bb485611977565b611bbd85611977565b604051602001611bce9291906129a7565b60405160208183030381529060405281600181518110611bf057611bf061272a565b60200260200101819052506117416040518060400160405280600381526020016273766760e81b815250878484611f85565b606061048b6040518060400160405280600d81526020016c1a5b5859d94bdcdd99cade1b5b609a1b8152508361204f90919063ffffffff16565b6060858585604051602001611c73939291906129e7565b6040516020818303038152906040529050600083511115611d62578083600081518110611ca257611ca261272a565b602002602001015183600081518110611cbd57611cbd61272a565b6020026020010151604051602001611cd793929190612a93565b60408051601f19818403018152919052905060015b8351811015611d605781848281518110611d0857611d0861272a565b6020026020010151848381518110611d2257611d2261272a565b6020026020010151604051602001611d3c93929190612b17565b60405160208183030381529060405291508080611d5890612950565b915050611cec565b505b80604051602001611d739190612b9c565b604051602081830303815290604052905095945050505050565b606061048b6040518060400160405280601081526020016f30b8383634b1b0ba34b7b717b539b7b760811b8152508361204f90919063ffffffff16565b6006805460009182611ddb83612950565b919050559050610ae58282612083565b6060611df8826002612bc2565b611e03906002612643565b67ffffffffffffffff811115611e1b57611e1b61231a565b6040519080825280601f01601f191660200182016040528015611e45576020820181803683370190505b509050600360fc1b81600081518110611e6057611e6061272a565b60200101906001600160f81b031916908160001a905350600f60fb1b81600181518110611e8f57611e8f61272a565b60200101906001600160f81b031916908160001a9053506000611eb3836002612bc2565b611ebe906001612643565b90505b6001811115611f36576f181899199a1a9b1b9c1cb0b131b232b360811b84600f1660108110611ef257611ef261272a565b1a60f81b828281518110611f0857611f0861272a565b60200101906001600160f81b031916908160001a90535060049390931c92611f2f81612be1565b9050611ec1565b50821561048b5760405162461bcd60e51b815260206004820152601760248201527f48657861646563696d616c3a5a45524f5f4c454e47544800000000000000000060448201526064016105e1565b606084604051602001611f989190612bf8565b604051602081830303815290604052905060005b83518110156120205781848281518110611fc857611fc861272a565b6020026020010151848381518110611fe257611fe261272a565b6020026020010151604051602001611ffc93929190612c21565b6040516020818303038152906040529150808061201890612950565b915050611fac565b5080848660405160200161203693929190612c8f565b6040516020818303038152906040529050949350505050565b60608161205b8461218e565b60405160200161206c929190612cf8565b604051602081830303815290604052905092915050565b6001600160a01b0382166120cd5760405162461bcd60e51b81526020600482015260116024820152701253959053125117d49150d25412515395607a1b60448201526064016105e1565b6000818152600260205260409020546001600160a01b0316156121235760405162461bcd60e51b815260206004820152600e60248201526d1053149150511657d3525395115160921b60448201526064016105e1565b6001600160a01b038216600081815260036020908152604080832080546001019055848352600290915280822080546001600160a01b0319168417905551839291907fddf252ad1be2c89b69c2b068fc378daa952ba7f163c4a11628f55a4df523b3ef908290a45050565b606081516000036121ad57505060408051602081019091526000815290565b6000604051806060016040528060408152602001612d4d6040913990506003835160026121da9190612643565b6121e4919061297f565b6121ef906004612bc2565b67ffffffffffffffff8111156122075761220761231a565b6040519080825280601f01601f191660200182016040528015612231576020820181803683370190505b509150600181016020830184855186015b8082101561229d576003820191508151603f8160121c168501518453600184019350603f81600c1c168501518453600184019350603f8160061c168501518453600184019350603f8116850151845350600183019250612242565b50506003855106600181146122b957600281146122cc576122d4565b603d6001830353603d60028303536122d4565b603d60018303535b50505050919050565b6001600160e01b0319811681146122f357600080fd5b50565b60006020828403121561230857600080fd5b8135612313816122dd565b9392505050565b634e487b7160e01b600052604160045260246000fd5b6001600160a01b03811681146122f357600080fd5b60006060828403121561235757600080fd5b6040516060810181811067ffffffffffffffff8211171561238857634e487b7160e01b600052604160045260246000fd5b60405282358152602083013561239d81612330565b602082015260408301356123b081612330565b60408201529392505050565b60005b838110156123d75781810151838201526020016123bf565b838111156123e6576000848401525b50505050565b602081526000825180602084015261240b8160408501602087016123bc565b601f01601f19169190910160400192915050565b60006020828403121561243157600080fd5b5035919050565b6000806040838503121561244b57600080fd5b823561245681612330565b946020939093013593505050565b60006020828403121561247657600080fd5b813561231381612330565b60008060006060848603121561249657600080fd5b83356124a181612330565b925060208401356124b181612330565b929592945050506040919091013590565b80151581146122f357600080fd5b600080604083850312156124e357600080fd5b82356124ee81612330565b915060208301356124fe816124c2565b809150509250929050565b6000806040838503121561251c57600080fd5b823561252781612330565b915060208301356124fe81612330565b60008060008060006080868803121561254f57600080fd5b853561255a81612330565b9450602086013561256a81612330565b935060408601359250606086013567ffffffffffffffff8082111561258e57600080fd5b818801915088601f8301126125a257600080fd5b8135818111156125b157600080fd5b8960208285010111156125c357600080fd5b9699959850939650602001949392505050565b600181811c908216806125ea57607f821691505b60208210810361260a57634e487b7160e01b600052602260045260246000fd5b50919050565b60006020828403121561262257600080fd5b8151612313816124c2565b634e487b7160e01b600052601160045260246000fd5b600082198211156126565761265661262d565b500190565b60006020828403121561266d57600080fd5b8151612313816122dd565b60208082526010908201526f155394d0519157d49150d2541251539560821b604082015260600190565b6000602082840312156126b457600080fd5b815161231381612330565b6000828210156126d1576126d161262d565b500390565b6001600160a01b038681168252851660208201526040810184905260806060820181905281018290526000828460a0840137600060a0848401015260a0601f19601f85011683010190509695505050505050565b634e487b7160e01b600052603260045260246000fd5b600081516127528185602086016123bc565b9290920192915050565b6000601160f91b80835283516127798160018601602088016123bc565b600193019283015250600201919050565b6a021b430b63632b733b29d160ad1b8152600082516127b081600b8501602087016123bc565b91909101600b0192915050565b6a0283937b3b930b69d1010160ad1b8152600082516127b081600b8501602087016123bc565b600083516127f58184602088016123bc565b8351908301906128098183602088016123bc565b01949350505050565b65029b4bd329d160d51b8152600083516128338160068501602088016123bc565b83519083019061284a8160068401602088016123bc565b01600601949350505050565b64023b0b99d160dd1b8152600083516128768160058501602088016123bc565b83519083019061288d8160058401602088016123bc565b01600501949350505050565b600080845481600182811c9150808316806128b557607f831692505b602080841082036128d457634e487b7160e01b86526022600452602486fd5b8180156128e857600181146128f957612926565b60ff19861689528489019650612926565b60008b81526020902060005b8681101561291e5781548b820152908501908301612905565b505084890196505b50505050505061293a8161202360f01b9052565b6129476002820185612740565b95945050505050565b6000600182016129625761296261262d565b5060010190565b634e487b7160e01b600052601260045260246000fd5b60008261298e5761298e612969565b500490565b6000826129a2576129a2612969565b500690565b630181018160e51b8152600083516129c68160048501602088016123bc565b600160fd1b600491840191820152835161288d8160058401602088016123bc565b683d913730b6b2911d1160b91b81528351600090612a0c8160098501602089016123bc565b701116113232b9b1b934b83a34b7b7111d1160791b6009918401918201528451612a3d81601a8401602089016123bc565b6a11161134b6b0b3b2911d1160a91b601a92909101918201528351612a698160258401602088016123bc565b6f222c2261747472696275746573223a5b60801b6025929091019182015260350195945050505050565b60008451612aa58184602089016123bc565b6e3d913a3930b4ba2fba3cb832911d1160891b9083019081528451612ad181600f8401602089016123bc565b691116113b30b63ab2911d60b11b600f92909101918201528351612afc8160198401602088016123bc565b607d60f81b60199290910191820152601a0195945050505050565b60008451612b298184602089016123bc565b6f163d913a3930b4ba2fba3cb832911d1160811b9083019081528451612b568160108401602089016123bc565b691116113b30b63ab2911d60b11b601092909101918201528351612b8181601a8401602088016123bc565b607d60f81b601a9290910191820152601b0195945050505050565b60008251612bae8184602087016123bc565b615d7d60f01b920191825250600201919050565b6000816000190483118215151615612bdc57612bdc61262d565b500290565b600081612bf057612bf061262d565b506000190190565b600f60fa1b815260008251612c148160018501602087016123bc565b9190910160010192915050565b60008451612c338184602089016123bc565b600160fd1b9083019081528451612c518160018401602089016123bc565b611e9160f11b600192909101918201528351612c748160038401602088016123bc565b601160f91b6003929091019182015260040195945050505050565b60008451612ca18184602089016123bc565b8083019050601f60f91b8082528551612cc1816001850160208a016123bc565b613c2f60f01b600193909101928301528451612ce48160038501602089016123bc565b600392019182015260040195945050505050565b643230ba309d60d91b815260008351612d188160058501602088016123bc565b670ed8985cd94d8d0b60c21b6005918401918201528351612d4081600d8401602088016123bc565b01600d0194935050505056fe4142434445464748494a4b4c4d4e4f505152535455565758595a6162636465666768696a6b6c6d6e6f707172737475767778797a303132333435363738392b2fa2646970667358221220ed4ab56e5d0143885926c87eb15871924755ead6b23d26f0ec2d771de0909bb764736f6c634300080d0033",
    "linkReferences": {}
  },
  "methodIdentifiers": {
    "approve(address,uint256)": "095ea7b3",
    "balanceOf(address)": "70a08231",
    "fund(address)": "23024408",
    "funds(address)": "e2ae93fb",
    "getApproved(uint256)": "081812fc",
    "isApprovedForAll(address,address)": "e985e9c5",
    "isRecord((uint256,address,address))": "056a0bed",
    "isRecord(uint256)": "274eafa5",
    "name()": "06fdde03",
    "ownerOf(uint256)": "6352211e",
    "records(address)": "469e9067",
    "safeTransferFrom(address,address,uint256)": "42842e0e",
    "safeTransferFrom(address,address,uint256,bytes)": "b88d4fde",
    "setApprovalForAll(address,bool)": "a22cb465",
    "submit(address,address)": "b1cb3d0e",
    "supportsInterface(bytes4)": "01ffc9a7",
    "symbol()": "95d89b41",
    "tokenURI(uint256)": "c87b56dd",
    "totalSupply()": "18160ddd",
    "transferFrom(address,address,uint256)": "23b872dd"
  }
}